{
  "contractName": "Retail",
  "abi": [
    {
      "inputs": [],
      "stateMutability": "nonpayable",
      "type": "constructor"
    },
    {
      "inputs": [
        {
          "internalType": "address",
          "name": "",
          "type": "address"
        }
      ],
      "name": "landInspectors",
      "outputs": [
        {
          "internalType": "uint256",
          "name": "lid",
          "type": "uint256"
        },
        {
          "internalType": "bool",
          "name": "isLandInspector",
          "type": "bool"
        }
      ],
      "stateMutability": "view",
      "type": "function",
      "constant": true
    },
    {
      "inputs": [
        {
          "internalType": "uint256",
          "name": "",
          "type": "uint256"
        }
      ],
      "name": "landInspectorsList",
      "outputs": [
        {
          "internalType": "uint256",
          "name": "lid",
          "type": "uint256"
        },
        {
          "internalType": "address",
          "name": "addr",
          "type": "address"
        },
        {
          "internalType": "string",
          "name": "name",
          "type": "string"
        },
        {
          "internalType": "uint256",
          "name": "age",
          "type": "uint256"
        },
        {
          "internalType": "string",
          "name": "designation",
          "type": "string"
        },
        {
          "internalType": "bool",
          "name": "isLandInspector",
          "type": "bool"
        }
      ],
      "stateMutability": "view",
      "type": "function",
      "constant": true
    },
    {
      "inputs": [
        {
          "internalType": "uint256",
          "name": "",
          "type": "uint256"
        }
      ],
      "name": "landList",
      "outputs": [
        {
          "internalType": "uint256",
          "name": "landId",
          "type": "uint256"
        },
        {
          "internalType": "address",
          "name": "ownerAddr",
          "type": "address"
        },
        {
          "internalType": "uint256",
          "name": "area",
          "type": "uint256"
        },
        {
          "internalType": "uint256",
          "name": "price",
          "type": "uint256"
        },
        {
          "internalType": "string",
          "name": "place",
          "type": "string"
        },
        {
          "internalType": "string",
          "name": "location",
          "type": "string"
        },
        {
          "internalType": "string",
          "name": "landImage",
          "type": "string"
        },
        {
          "internalType": "string",
          "name": "doc",
          "type": "string"
        },
        {
          "internalType": "string",
          "name": "supportingDoc",
          "type": "string"
        },
        {
          "internalType": "bool",
          "name": "isForSell",
          "type": "bool"
        },
        {
          "internalType": "bool",
          "name": "isLandVerified",
          "type": "bool"
        }
      ],
      "stateMutability": "view",
      "type": "function",
      "constant": true
    },
    {
      "inputs": [
        {
          "internalType": "uint256",
          "name": "",
          "type": "uint256"
        }
      ],
      "name": "lands",
      "outputs": [
        {
          "internalType": "address",
          "name": "",
          "type": "address"
        }
      ],
      "stateMutability": "view",
      "type": "function",
      "constant": true
    },
    {
      "inputs": [
        {
          "internalType": "uint256",
          "name": "",
          "type": "uint256"
        }
      ],
      "name": "reqList",
      "outputs": [
        {
          "internalType": "uint256",
          "name": "reqId",
          "type": "uint256"
        },
        {
          "internalType": "uint256",
          "name": "landId",
          "type": "uint256"
        },
        {
          "internalType": "address",
          "name": "owner",
          "type": "address"
        },
        {
          "internalType": "string",
          "name": "ownerName",
          "type": "string"
        },
        {
          "internalType": "address",
          "name": "buyer",
          "type": "address"
        },
        {
          "internalType": "string",
          "name": "buyerName",
          "type": "string"
        },
        {
          "internalType": "bool",
          "name": "paymentDone",
          "type": "bool"
        },
        {
          "internalType": "enum Retail.reqStatus",
          "name": "requestStatus",
          "type": "uint8"
        }
      ],
      "stateMutability": "view",
      "type": "function",
      "constant": true
    },
    {
      "inputs": [
        {
          "internalType": "uint256",
          "name": "",
          "type": "uint256"
        }
      ],
      "name": "transactions",
      "outputs": [
        {
          "internalType": "uint256",
          "name": "tId",
          "type": "uint256"
        },
        {
          "internalType": "uint256",
          "name": "landId",
          "type": "uint256"
        },
        {
          "internalType": "address",
          "name": "from",
          "type": "address"
        },
        {
          "internalType": "string",
          "name": "fromName",
          "type": "string"
        },
        {
          "internalType": "address",
          "name": "to",
          "type": "address"
        },
        {
          "internalType": "string",
          "name": "toName",
          "type": "string"
        }
      ],
      "stateMutability": "view",
      "type": "function",
      "constant": true
    },
    {
      "inputs": [
        {
          "internalType": "address",
          "name": "",
          "type": "address"
        }
      ],
      "name": "users",
      "outputs": [
        {
          "internalType": "uint256",
          "name": "uid",
          "type": "uint256"
        },
        {
          "internalType": "bool",
          "name": "isUser",
          "type": "bool"
        }
      ],
      "stateMutability": "view",
      "type": "function",
      "constant": true
    },
    {
      "inputs": [
        {
          "internalType": "uint256",
          "name": "",
          "type": "uint256"
        }
      ],
      "name": "usersList",
      "outputs": [
        {
          "internalType": "address",
          "name": "addr",
          "type": "address"
        },
        {
          "internalType": "string",
          "name": "name",
          "type": "string"
        },
        {
          "internalType": "uint256",
          "name": "age",
          "type": "uint256"
        },
        {
          "internalType": "uint256",
          "name": "phone",
          "type": "uint256"
        },
        {
          "internalType": "string",
          "name": "identity",
          "type": "string"
        },
        {
          "internalType": "bool",
          "name": "isVerified",
          "type": "bool"
        },
        {
          "internalType": "bool",
          "name": "isUser",
          "type": "bool"
        }
      ],
      "stateMutability": "view",
      "type": "function",
      "constant": true
    },
    {
      "inputs": [
        {
          "internalType": "address",
          "name": "addr",
          "type": "address"
        },
        {
          "internalType": "string",
          "name": "name",
          "type": "string"
        },
        {
          "internalType": "uint256",
          "name": "age",
          "type": "uint256"
        }
      ],
      "name": "addLandInspector",
      "outputs": [],
      "stateMutability": "nonpayable",
      "type": "function"
    },
    {
      "inputs": [
        {
          "internalType": "address",
          "name": "addr",
          "type": "address"
        }
      ],
      "name": "isLandInspector",
      "outputs": [
        {
          "internalType": "bool",
          "name": "",
          "type": "bool"
        }
      ],
      "stateMutability": "view",
      "type": "function",
      "constant": true
    },
    {
      "inputs": [],
      "name": "getLandInspectors",
      "outputs": [
        {
          "components": [
            {
              "internalType": "uint256",
              "name": "lid",
              "type": "uint256"
            },
            {
              "internalType": "address",
              "name": "addr",
              "type": "address"
            },
            {
              "internalType": "string",
              "name": "name",
              "type": "string"
            },
            {
              "internalType": "uint256",
              "name": "age",
              "type": "uint256"
            },
            {
              "internalType": "string",
              "name": "designation",
              "type": "string"
            },
            {
              "internalType": "bool",
              "name": "isLandInspector",
              "type": "bool"
            }
          ],
          "internalType": "struct Retail.landInspector[]",
          "name": "",
          "type": "tuple[]"
        }
      ],
      "stateMutability": "view",
      "type": "function",
      "constant": true
    },
    {
      "inputs": [
        {
          "internalType": "address",
          "name": "addr",
          "type": "address"
        },
        {
          "internalType": "string",
          "name": "name",
          "type": "string"
        },
        {
          "internalType": "uint256",
          "name": "age",
          "type": "uint256"
        },
        {
          "internalType": "uint256",
          "name": "phone",
          "type": "uint256"
        },
        {
          "internalType": "string",
          "name": "identity",
          "type": "string"
        }
      ],
      "name": "addUser",
      "outputs": [],
      "stateMutability": "nonpayable",
      "type": "function"
    },
    {
      "inputs": [
        {
          "internalType": "address",
          "name": "addr",
          "type": "address"
        }
      ],
      "name": "userExists",
      "outputs": [
        {
          "internalType": "bool",
          "name": "",
          "type": "bool"
        }
      ],
      "stateMutability": "view",
      "type": "function",
      "constant": true
    },
    {
      "inputs": [],
      "name": "isUserVerified",
      "outputs": [
        {
          "internalType": "bool",
          "name": "",
          "type": "bool"
        }
      ],
      "stateMutability": "view",
      "type": "function",
      "constant": true
    },
    {
      "inputs": [
        {
          "internalType": "address",
          "name": "addr",
          "type": "address"
        }
      ],
      "name": "verifyUser",
      "outputs": [],
      "stateMutability": "nonpayable",
      "type": "function"
    },
    {
      "inputs": [],
      "name": "getUsers",
      "outputs": [
        {
          "components": [
            {
              "internalType": "address",
              "name": "addr",
              "type": "address"
            },
            {
              "internalType": "string",
              "name": "name",
              "type": "string"
            },
            {
              "internalType": "uint256",
              "name": "age",
              "type": "uint256"
            },
            {
              "internalType": "uint256",
              "name": "phone",
              "type": "uint256"
            },
            {
              "internalType": "string",
              "name": "identity",
              "type": "string"
            },
            {
              "internalType": "bool",
              "name": "isVerified",
              "type": "bool"
            },
            {
              "internalType": "bool",
              "name": "isUser",
              "type": "bool"
            }
          ],
          "internalType": "struct Retail.user[]",
          "name": "",
          "type": "tuple[]"
        }
      ],
      "stateMutability": "view",
      "type": "function",
      "constant": true
    },
    {
      "inputs": [],
      "name": "getUser",
      "outputs": [
        {
          "components": [
            {
              "internalType": "address",
              "name": "addr",
              "type": "address"
            },
            {
              "internalType": "string",
              "name": "name",
              "type": "string"
            },
            {
              "internalType": "uint256",
              "name": "age",
              "type": "uint256"
            },
            {
              "internalType": "uint256",
              "name": "phone",
              "type": "uint256"
            },
            {
              "internalType": "string",
              "name": "identity",
              "type": "string"
            },
            {
              "internalType": "bool",
              "name": "isVerified",
              "type": "bool"
            },
            {
              "internalType": "bool",
              "name": "isUser",
              "type": "bool"
            }
          ],
          "internalType": "struct Retail.user",
          "name": "",
          "type": "tuple"
        }
      ],
      "stateMutability": "view",
      "type": "function",
      "constant": true
    },
    {
      "inputs": [
        {
          "internalType": "uint256",
          "name": "area",
          "type": "uint256"
        },
        {
          "internalType": "uint256",
          "name": "price",
          "type": "uint256"
        },
        {
          "internalType": "string",
          "name": "place",
          "type": "string"
        },
        {
          "internalType": "string",
          "name": "location",
          "type": "string"
        },
        {
          "internalType": "string",
          "name": "landImage",
          "type": "string"
        },
        {
          "internalType": "string",
          "name": "doc",
          "type": "string"
        },
        {
          "internalType": "string",
          "name": "supportingDoc",
          "type": "string"
        }
      ],
      "name": "addLand",
      "outputs": [],
      "stateMutability": "nonpayable",
      "type": "function"
    },
    {
      "inputs": [],
      "name": "getAllLands",
      "outputs": [
        {
          "components": [
            {
              "internalType": "uint256",
              "name": "landId",
              "type": "uint256"
            },
            {
              "internalType": "address",
              "name": "ownerAddr",
              "type": "address"
            },
            {
              "internalType": "uint256",
              "name": "area",
              "type": "uint256"
            },
            {
              "internalType": "uint256",
              "name": "price",
              "type": "uint256"
            },
            {
              "internalType": "string",
              "name": "place",
              "type": "string"
            },
            {
              "internalType": "string",
              "name": "location",
              "type": "string"
            },
            {
              "internalType": "string",
              "name": "landImage",
              "type": "string"
            },
            {
              "internalType": "string",
              "name": "doc",
              "type": "string"
            },
            {
              "internalType": "string",
              "name": "supportingDoc",
              "type": "string"
            },
            {
              "internalType": "bool",
              "name": "isForSell",
              "type": "bool"
            },
            {
              "internalType": "bool",
              "name": "isLandVerified",
              "type": "bool"
            }
          ],
          "internalType": "struct Retail.land[]",
          "name": "",
          "type": "tuple[]"
        }
      ],
      "stateMutability": "view",
      "type": "function",
      "constant": true
    },
    {
      "inputs": [
        {
          "internalType": "uint256",
          "name": "landId",
          "type": "uint256"
        }
      ],
      "name": "isLandVerified",
      "outputs": [
        {
          "internalType": "bool",
          "name": "",
          "type": "bool"
        }
      ],
      "stateMutability": "view",
      "type": "function",
      "constant": true
    },
    {
      "inputs": [
        {
          "internalType": "uint256",
          "name": "landId",
          "type": "uint256"
        }
      ],
      "name": "isLandOwner",
      "outputs": [
        {
          "internalType": "bool",
          "name": "",
          "type": "bool"
        }
      ],
      "stateMutability": "view",
      "type": "function",
      "constant": true
    },
    {
      "inputs": [
        {
          "internalType": "uint256",
          "name": "landId",
          "type": "uint256"
        }
      ],
      "name": "verifyLand",
      "outputs": [],
      "stateMutability": "nonpayable",
      "type": "function"
    },
    {
      "inputs": [
        {
          "internalType": "uint256",
          "name": "landId",
          "type": "uint256"
        }
      ],
      "name": "makeLandForSell",
      "outputs": [],
      "stateMutability": "nonpayable",
      "type": "function"
    },
    {
      "inputs": [
        {
          "internalType": "uint256",
          "name": "landId",
          "type": "uint256"
        }
      ],
      "name": "addRequest",
      "outputs": [
        {
          "internalType": "bool",
          "name": "",
          "type": "bool"
        }
      ],
      "stateMutability": "nonpayable",
      "type": "function"
    },
    {
      "inputs": [],
      "name": "showRequests",
      "outputs": [
        {
          "components": [
            {
              "internalType": "uint256",
              "name": "reqId",
              "type": "uint256"
            },
            {
              "internalType": "uint256",
              "name": "landId",
              "type": "uint256"
            },
            {
              "internalType": "address",
              "name": "owner",
              "type": "address"
            },
            {
              "internalType": "string",
              "name": "ownerName",
              "type": "string"
            },
            {
              "internalType": "address",
              "name": "buyer",
              "type": "address"
            },
            {
              "internalType": "string",
              "name": "buyerName",
              "type": "string"
            },
            {
              "internalType": "bool",
              "name": "paymentDone",
              "type": "bool"
            },
            {
              "internalType": "enum Retail.reqStatus",
              "name": "requestStatus",
              "type": "uint8"
            }
          ],
          "internalType": "struct Retail.landRequests[]",
          "name": "",
          "type": "tuple[]"
        }
      ],
      "stateMutability": "view",
      "type": "function",
      "constant": true
    },
    {
      "inputs": [
        {
          "internalType": "uint256",
          "name": "rId",
          "type": "uint256"
        }
      ],
      "name": "rejectRequest",
      "outputs": [],
      "stateMutability": "nonpayable",
      "type": "function"
    },
    {
      "inputs": [
        {
          "internalType": "uint256",
          "name": "rId",
          "type": "uint256"
        }
      ],
      "name": "acceptRequest",
      "outputs": [],
      "stateMutability": "nonpayable",
      "type": "function"
    },
    {
      "inputs": [
        {
          "internalType": "uint256",
          "name": "reqId",
          "type": "uint256"
        }
      ],
      "name": "verifyPayment",
      "outputs": [
        {
          "internalType": "bool",
          "name": "",
          "type": "bool"
        }
      ],
      "stateMutability": "nonpayable",
      "type": "function"
    },
    {
      "inputs": [],
      "name": "showApprovedRequests",
      "outputs": [
        {
          "components": [
            {
              "internalType": "uint256",
              "name": "reqId",
              "type": "uint256"
            },
            {
              "internalType": "uint256",
              "name": "landId",
              "type": "uint256"
            },
            {
              "internalType": "address",
              "name": "owner",
              "type": "address"
            },
            {
              "internalType": "string",
              "name": "ownerName",
              "type": "string"
            },
            {
              "internalType": "address",
              "name": "buyer",
              "type": "address"
            },
            {
              "internalType": "string",
              "name": "buyerName",
              "type": "string"
            },
            {
              "internalType": "bool",
              "name": "paymentDone",
              "type": "bool"
            },
            {
              "internalType": "enum Retail.reqStatus",
              "name": "requestStatus",
              "type": "uint8"
            }
          ],
          "internalType": "struct Retail.landRequests[]",
          "name": "",
          "type": "tuple[]"
        }
      ],
      "stateMutability": "view",
      "type": "function",
      "constant": true
    },
    {
      "inputs": [
        {
          "internalType": "uint256",
          "name": "rId",
          "type": "uint256"
        }
      ],
      "name": "makeTransfer",
      "outputs": [
        {
          "internalType": "bool",
          "name": "",
          "type": "bool"
        }
      ],
      "stateMutability": "nonpayable",
      "type": "function"
    },
    {
      "inputs": [],
      "name": "showTransactions",
      "outputs": [
        {
          "components": [
            {
              "internalType": "uint256",
              "name": "tId",
              "type": "uint256"
            },
            {
              "internalType": "uint256",
              "name": "landId",
              "type": "uint256"
            },
            {
              "internalType": "address",
              "name": "from",
              "type": "address"
            },
            {
              "internalType": "string",
              "name": "fromName",
              "type": "string"
            },
            {
              "internalType": "address",
              "name": "to",
              "type": "address"
            },
            {
              "internalType": "string",
              "name": "toName",
              "type": "string"
            }
          ],
          "internalType": "struct Retail.transaction[]",
          "name": "",
          "type": "tuple[]"
        }
      ],
      "stateMutability": "view",
      "type": "function",
      "constant": true
    }
  ],
  "bytecode": "0x6080604052739fa5d84c3abbf41ba75beaf136916ce0475d5b2a6000806101000a81548173ffffffffffffffffffffffffffffffffffffffff021916908373ffffffffffffffffffffffffffffffffffffffff1602179055503480156200006557600080fd5b50620000c37365751938d5896a453cca5815e3680c73def0ea926040518060400160405280600a81526020017f696e73706563746f72310000000000000000000000000000000000000000000081525060286200024060201b60201c565b6200014073c81f0673e01be52d92278a907dc8d38cbc901c3a6040518060400160405280600681526020017f73656c6c657200000000000000000000000000000000000000000000000000008152506014640203bfa3be6040518060800160405280605a81526020016200629e605a91396200049860201b60201c565b620001bd73c8e6aa8354a0ce0ca175db92b821e6dbb98c7ba86040518060400160405280600581526020017f62757965720000000000000000000000000000000000000000000000000000008152506014640203bfa3be604051806080016040528060588152602001620062f8605891396200049860201b60201c565b6200023a737dc7751b7439780d6607d04236cfad6df697d57f6040518060400160405280600581526020017f75736572330000000000000000000000000000000000000000000000000000008152506019640203bfa3be604051806080016040528060588152602001620062f8605891396200049860201b60201c565b62000ab1565b3373ffffffffffffffffffffffffffffffffffffffff1660008054906101000a900473ffffffffffffffffffffffffffffffffffffffff1673ffffffffffffffffffffffffffffffffffffffff16148015620002aa5750620002a883620006e460201b60201c565b155b15620004935760006001805490509050604051806040016040528082815260200160011515815250600260008673ffffffffffffffffffffffffffffffffffffffff1673ffffffffffffffffffffffffffffffffffffffff1681526020019081526020016000206000820151816000015560208201518160010160006101000a81548160ff02191690831515021790555090505060016040518060c001604052808381526020018673ffffffffffffffffffffffffffffffffffffffff1681526020018581526020018481526020016040518060400160405280600d81526020017f7375622d7265676973747261720000000000000000000000000000000000000081525081526020016001151581525090806001815401808255809150506001900390600052602060002090600602016000909190919091506000820151816000015560208201518160010160006101000a81548173ffffffffffffffffffffffffffffffffffffffff021916908373ffffffffffffffffffffffffffffffffffffffff16021790555060408201518160020190816200044c9190620009ca565b506060820151816003015560808201518160040190816200046e9190620009ca565b5060a08201518160050160006101000a81548160ff0219169083151502179055505050505b505050565b620004a933620006e460201b60201c565b8062000500575060008054906101000a900473ffffffffffffffffffffffffffffffffffffffff1673ffffffffffffffffffffffffffffffffffffffff163373ffffffffffffffffffffffffffffffffffffffff16145b15620006dd576000600380549050905060036040518060e001604052808873ffffffffffffffffffffffffffffffffffffffff16815260200187815260200186815260200185815260200184815260200160001515815260200160011515815250908060018154018082558091505060019003906000526020600020906006020160009091909190915060008201518160000160006101000a81548173ffffffffffffffffffffffffffffffffffffffff021916908373ffffffffffffffffffffffffffffffffffffffff1602179055506020820151816001019081620005e89190620009ca565b5060408201518160020155606082015181600301556080820151816004019081620006149190620009ca565b5060a08201518160050160006101000a81548160ff02191690831515021790555060c08201518160050160016101000a81548160ff0219169083151502179055505050604051806040016040528082815260200160011515815250600460008873ffffffffffffffffffffffffffffffffffffffff1673ffffffffffffffffffffffffffffffffffffffff1681526020019081526020016000206000820151816000015560208201518160010160006101000a81548160ff021916908315150217905550905050505b5050505050565b6000600260008373ffffffffffffffffffffffffffffffffffffffff1673ffffffffffffffffffffffffffffffffffffffff16815260200190815260200160002060010160009054906101000a900460ff16156200074657600190506200074b565b600090505b919050565b600081519050919050565b7f4e487b7100000000000000000000000000000000000000000000000000000000600052604160045260246000fd5b7f4e487b7100000000000000000000000000000000000000000000000000000000600052602260045260246000fd5b60006002820490506001821680620007d257607f821691505b602082108103620007e857620007e76200078a565b5b50919050565b60008190508160005260206000209050919050565b60006020601f8301049050919050565b600082821b905092915050565b600060088302620008527fffffffffffffffffffffffffffffffffffffffffffffffffffffffffffffffff8262000813565b6200085e868362000813565b95508019841693508086168417925050509392505050565b6000819050919050565b6000819050919050565b6000620008ab620008a56200089f8462000876565b62000880565b62000876565b9050919050565b6000819050919050565b620008c7836200088a565b620008df620008d682620008b2565b84845462000820565b825550505050565b600090565b620008f6620008e7565b62000903818484620008bc565b505050565b5b818110156200092b576200091f600082620008ec565b60018101905062000909565b5050565b601f8211156200097a576200094481620007ee565b6200094f8462000803565b810160208510156200095f578190505b620009776200096e8562000803565b83018262000908565b50505b505050565b600082821c905092915050565b60006200099f600019846008026200097f565b1980831691505092915050565b6000620009ba83836200098c565b9150826002028217905092915050565b620009d58262000750565b67ffffffffffffffff811115620009f157620009f06200075b565b5b620009fd8254620007b9565b62000a0a8282856200092f565b600060209050601f83116001811462000a42576000841562000a2d578287015190505b62000a398582620009ac565b86555062000aa9565b601f19841662000a5286620007ee565b60005b8281101562000a7c5784890151825560018201915060208501945060208101905062000a55565b8683101562000a9c578489015162000a98601f8916826200098c565b8355505b6001600288020188555050505b505050505050565b6157dd8062000ac16000396000f3fe608060405234801561001057600080fd5b50600436106101e45760003560e01c806372f760bd1161010f578063b5a2847b116100a2578063e165af8711610071578063e165af8714610600578063e261f1e514610630578063f9c43bdf14610660578063fd02160d1461067c576101e4565b8063b5a2847b14610555578063b7b6e5431461058a578063ccd00b14146105a8578063d5e42151146105c6576101e4565b80639ace38c2116100de5780639ace38c2146104b5578063a87430ba146104ea578063b39d69cf1461051b578063b3d0f3a314610539576101e4565b806372f760bd146104135780638228bf0514610444578063832880e71461047b57806397f471f614610499576101e4565b80634ca1fad81161018757806353fafd151161015657806353fafd151461036557806358c87dbf146103955780635b057fd1146103b35780636cbf6cf8146103e3576101e4565b80634ca1fad8146102c55780634d813120146102f5578063502aa3b5146103115780635314988314610347576101e4565b80630d3c7669116101c35780630d3c7669146102415780630e666e491461025d5780632d7788db1461028d5780634ba1f098146102a9576101e4565b8062ce8e3e146101e9578063036885e114610207578063041a852814610225575b600080fd5b6101f16106ac565b6040516101fe919061446e565b60405180910390f35b61020f6108cf565b60405161021c9190614680565b60405180910390f35b61023f600480360381019061023a91906146e2565b610b69565b005b61025b60048036038101906102569190614870565b610c8f565b005b61027760048036038101906102729190614923565b610ecd565b604051610284919061495f565b60405180910390f35b6102a760048036038101906102a291906146e2565b610f37565b005b6102c360048036038101906102be91906146e2565b611012565b005b6102df60048036038101906102da91906146e2565b6112d6565b6040516102ec919061495f565b60405180910390f35b61030f600480360381019061030a9190614923565b611732565b005b61032b600480360381019061032691906146e2565b611838565b60405161033e97969594939291906149e2565b60405180910390f35b61034f6119d4565b60405161035c9190614bb1565b60405180910390f35b61037f600480360381019061037a91906146e2565b611c35565b60405161038c919061495f565b60405180910390f35b61039d61236c565b6040516103aa919061495f565b60405180910390f35b6103cd60048036038101906103c891906146e2565b61244b565b6040516103da919061495f565b60405180910390f35b6103fd60048036038101906103f891906146e2565b612548565b60405161040a919061495f565b60405180910390f35b61042d60048036038101906104289190614923565b612595565b60405161043b929190614bd3565b60405180910390f35b61045e600480360381019061045991906146e2565b6125c6565b604051610472989796959493929190614c0b565b60405180910390f35b610483612788565b6040516104909190614d3a565b60405180910390f35b6104b360048036038101906104ae9190614d5c565b6129dc565b005b6104cf60048036038101906104ca91906146e2565b612c26565b6040516104e196959493929190614dcb565b60405180910390f35b61050460048036038101906104ff9190614923565b612dc2565b604051610512929190614bd3565b60405180910390f35b610523612df3565b6040516105309190614680565b60405180910390f35b610553600480360381019061054e9190614e3a565b613273565b005b61056f600480360381019061056a91906146e2565b613492565b60405161058196959493929190614f68565b60405180910390f35b61059261361b565b60405161059f91906151a4565b60405180910390f35b6105b06139ff565b6040516105bd9190615318565b60405180910390f35b6105e060048036038101906105db91906146e2565b613c42565b6040516105f79b9a9998979695949392919061533a565b60405180910390f35b61061a60048036038101906106159190614923565b613f8e565b604051610627919061495f565b60405180910390f35b61064a600480360381019061064591906146e2565b613ff8565b6040516106579190615408565b60405180910390f35b61067a600480360381019061067591906146e2565b61402b565b005b610696600480360381019061069191906146e2565b6140ad565b6040516106a3919061495f565b60405180910390f35b60606003805480602002602001604051908101604052809291908181526020016000905b828210156108c657838290600052602060002090600602016040518060e00160405290816000820160009054906101000a900473ffffffffffffffffffffffffffffffffffffffff1673ffffffffffffffffffffffffffffffffffffffff1673ffffffffffffffffffffffffffffffffffffffff16815260200160018201805461075990615452565b80601f016020809104026020016040519081016040528092919081815260200182805461078590615452565b80156107d25780601f106107a7576101008083540402835291602001916107d2565b820191906000526020600020905b8154815290600101906020018083116107b557829003601f168201915b5050505050815260200160028201548152602001600382015481526020016004820180546107ff90615452565b80601f016020809104026020016040519081016040528092919081815260200182805461082b90615452565b80156108785780601f1061084d57610100808354040283529160200191610878565b820191906000526020600020905b81548152906001019060200180831161085b57829003601f168201915b505050505081526020016005820160009054906101000a900460ff161515151581526020016005820160019054906101000a900460ff161515151581525050815260200190600101906106d0565b50505050905090565b60606007805480602002602001604051908101604052809291908181526020016000905b82821015610b6057838290600052602060002090600702016040518061010001604052908160008201548152602001600182015481526020016002820160009054906101000a900473ffffffffffffffffffffffffffffffffffffffff1673ffffffffffffffffffffffffffffffffffffffff1673ffffffffffffffffffffffffffffffffffffffff16815260200160038201805461099190615452565b80601f01602080910402602001604051908101604052809291908181526020018280546109bd90615452565b8015610a0a5780601f106109df57610100808354040283529160200191610a0a565b820191906000526020600020905b8154815290600101906020018083116109ed57829003601f168201915b505050505081526020016004820160009054906101000a900473ffffffffffffffffffffffffffffffffffffffff1673ffffffffffffffffffffffffffffffffffffffff1673ffffffffffffffffffffffffffffffffffffffff168152602001600582018054610a7990615452565b80601f0160208091040260200160405190810160405280929190818152602001828054610aa590615452565b8015610af25780601f10610ac757610100808354040283529160200191610af2565b820191906000526020600020905b815481529060010190602001808311610ad557829003601f168201915b505050505081526020016006820160009054906101000a900460ff161515151581526020016006820160019054906101000a900460ff166003811115610b3b57610b3a6144bc565b5b6003811115610b4d57610b4c6144bc565b5b81525050815260200190600101906108f3565b50505050905090565b60058181548110610b7d57610b7c615483565b5b90600052602060002090600a020160090160019054906101000a900460ff168015610c0657503373ffffffffffffffffffffffffffffffffffffffff166006600083815260200190815260200160002060009054906101000a900473ffffffffffffffffffffffffffffffffffffffff1673ffffffffffffffffffffffffffffffffffffffff16145b8015610c165750610c1561236c565b5b15610c8c5760058181548110610c2f57610c2e615483565b5b90600052602060002090600a020160090160009054906101000a900460ff161560058281548110610c6357610c62615483565b5b90600052602060002090600a020160090160006101000a81548160ff0219169083151502179055505b50565b610c9833613f8e565b80610cee575060008054906101000a900473ffffffffffffffffffffffffffffffffffffffff1673ffffffffffffffffffffffffffffffffffffffff163373ffffffffffffffffffffffffffffffffffffffff16145b15610ec6576000600380549050905060036040518060e001604052808873ffffffffffffffffffffffffffffffffffffffff16815260200187815260200186815260200185815260200184815260200160001515815260200160011515815250908060018154018082558091505060019003906000526020600020906006020160009091909190915060008201518160000160006101000a81548173ffffffffffffffffffffffffffffffffffffffff021916908373ffffffffffffffffffffffffffffffffffffffff1602179055506020820151816001019081610dd3919061565e565b5060408201518160020155606082015181600301556080820151816004019081610dfd919061565e565b5060a08201518160050160006101000a81548160ff02191690831515021790555060c08201518160050160016101000a81548160ff0219169083151502179055505050604051806040016040528082815260200160011515815250600460008873ffffffffffffffffffffffffffffffffffffffff1673ffffffffffffffffffffffffffffffffffffffff1681526020019081526020016000206000820151816000015560208201518160010160006101000a81548160ff021916908315150217905550905050505b5050505050565b6000600460008373ffffffffffffffffffffffffffffffffffffffff1673ffffffffffffffffffffffffffffffffffffffff16815260200190815260200160002060010160009054906101000a900460ff1615610f2d5760019050610f32565b600090505b919050565b60078181548110610f4b57610f4a615483565b5b906000526020600020906007020160020160009054906101000a900473ffffffffffffffffffffffffffffffffffffffff1673ffffffffffffffffffffffffffffffffffffffff163373ffffffffffffffffffffffffffffffffffffffff16148015610fbb5750610fba61236c565b5b1561100f57600160078281548110610fd657610fd5615483565b5b906000526020600020906007020160060160016101000a81548160ff02191690836003811115611009576110086144bc565b5b02179055505b50565b6007818154811061102657611025615483565b5b906000526020600020906007020160020160009054906101000a900473ffffffffffffffffffffffffffffffffffffffff1673ffffffffffffffffffffffffffffffffffffffff163373ffffffffffffffffffffffffffffffffffffffff16148015611096575061109561236c565b5b156110ea576002600782815481106110b1576110b0615483565b5b906000526020600020906007020160060160016101000a81548160ff021916908360038111156110e4576110e36144bc565b5b02179055505b60005b6007805490508110156112d2576007828154811061110e5761110d615483565b5b9060005260206000209060070201600101546007828154811061113457611133615483565b5b90600052602060002090600702016001015414801561120957506007828154811061116257611161615483565b5b906000526020600020906007020160040160009054906101000a900473ffffffffffffffffffffffffffffffffffffffff1673ffffffffffffffffffffffffffffffffffffffff16600782815481106111be576111bd615483565b5b906000526020600020906007020160040160009054906101000a900473ffffffffffffffffffffffffffffffffffffffff1673ffffffffffffffffffffffffffffffffffffffff1614155b801561126b5750600380811115611223576112226144bc565b5b6007828154811061123757611236615483565b5b906000526020600020906007020160060160019054906101000a900460ff166003811115611268576112676144bc565b5b14155b156112bf5760016007828154811061128657611285615483565b5b906000526020600020906007020160060160016101000a81548160ff021916908360038111156112b9576112b86144bc565b5b02179055505b80806112ca9061575f565b9150506110ed565b5050565b60006112e061236c565b15611728576000600780549050905060076040518061010001604052808381526020018581526020016005868154811061131d5761131c615483565b5b90600052602060002090600a020160010160009054906101000a900473ffffffffffffffffffffffffffffffffffffffff1673ffffffffffffffffffffffffffffffffffffffff1681526020016003600460006005898154811061138457611383615483565b5b90600052602060002090600a020160010160009054906101000a900473ffffffffffffffffffffffffffffffffffffffff1673ffffffffffffffffffffffffffffffffffffffff1673ffffffffffffffffffffffffffffffffffffffff168152602001908152602001600020600001548154811061140557611404615483565b5b9060005260206000209060060201600101805461142190615452565b80601f016020809104026020016040519081016040528092919081815260200182805461144d90615452565b801561149a5780601f1061146f5761010080835404028352916020019161149a565b820191906000526020600020905b81548152906001019060200180831161147d57829003601f168201915b505050505081526020013373ffffffffffffffffffffffffffffffffffffffff1681526020016003600460003373ffffffffffffffffffffffffffffffffffffffff1673ffffffffffffffffffffffffffffffffffffffff168152602001908152602001600020600001548154811061151657611515615483565b5b9060005260206000209060060201600101805461153290615452565b80601f016020809104026020016040519081016040528092919081815260200182805461155e90615452565b80156115ab5780601f10611580576101008083540402835291602001916115ab565b820191906000526020600020905b81548152906001019060200180831161158e57829003601f168201915b50505050508152602001600015158152602001600060038111156115d2576115d16144bc565b5b8152509080600181540180825580915050600190039060005260206000209060070201600090919091909150600082015181600001556020820151816001015560408201518160020160006101000a81548173ffffffffffffffffffffffffffffffffffffffff021916908373ffffffffffffffffffffffffffffffffffffffff160217905550606082015181600301908161166e919061565e565b5060808201518160040160006101000a81548173ffffffffffffffffffffffffffffffffffffffff021916908373ffffffffffffffffffffffffffffffffffffffff16021790555060a08201518160050190816116cb919061565e565b5060c08201518160060160006101000a81548160ff02191690831515021790555060e08201518160060160016101000a81548160ff02191690836003811115611717576117166144bc565b5b02179055505050600191505061172d565b600090505b919050565b61173b33613f8e565b15611835576003600460008373ffffffffffffffffffffffffffffffffffffffff1673ffffffffffffffffffffffffffffffffffffffff168152602001908152602001600020600001548154811061179657611795615483565b5b906000526020600020906006020160050160009054906101000a900460ff16156003600460008473ffffffffffffffffffffffffffffffffffffffff1673ffffffffffffffffffffffffffffffffffffffff168152602001908152602001600020600001548154811061180c5761180b615483565b5b906000526020600020906006020160050160006101000a81548160ff0219169083151502179055505b50565b6003818154811061184857600080fd5b90600052602060002090600602016000915090508060000160009054906101000a900473ffffffffffffffffffffffffffffffffffffffff169080600101805461189190615452565b80601f01602080910402602001604051908101604052809291908181526020018280546118bd90615452565b801561190a5780601f106118df5761010080835404028352916020019161190a565b820191906000526020600020905b8154815290600101906020018083116118ed57829003601f168201915b50505050509080600201549080600301549080600401805461192b90615452565b80601f016020809104026020016040519081016040528092919081815260200182805461195790615452565b80156119a45780601f10611979576101008083540402835291602001916119a4565b820191906000526020600020905b81548152906001019060200180831161198757829003601f168201915b5050505050908060050160009054906101000a900460ff16908060050160019054906101000a900460ff16905087565b606060008054906101000a900473ffffffffffffffffffffffffffffffffffffffff1673ffffffffffffffffffffffffffffffffffffffff163373ffffffffffffffffffffffffffffffffffffffff1603611c31576001805480602002602001604051908101604052809291908181526020016000905b82821015611c2657838290600052602060002090600602016040518060c0016040529081600082015481526020016001820160009054906101000a900473ffffffffffffffffffffffffffffffffffffffff1673ffffffffffffffffffffffffffffffffffffffff1673ffffffffffffffffffffffffffffffffffffffff168152602001600282018054611ade90615452565b80601f0160208091040260200160405190810160405280929190818152602001828054611b0a90615452565b8015611b575780601f10611b2c57610100808354040283529160200191611b57565b820191906000526020600020905b815481529060010190602001808311611b3a57829003601f168201915b5050505050815260200160038201548152602001600482018054611b7a90615452565b80601f0160208091040260200160405190810160405280929190818152602001828054611ba690615452565b8015611bf35780601f10611bc857610100808354040283529160200191611bf3565b820191906000526020600020905b815481529060010190602001808311611bd657829003601f168201915b505050505081526020016005820160009054906101000a900460ff16151515158152505081526020019060010190611a4b565b505050509050611c32565b5b90565b6000611c4033613f8e565b8015611c7b575060078281548110611c5b57611c5a615483565b5b906000526020600020906007020160060160009054906101000a900460ff165b8015611cdd575060026003811115611c9657611c956144bc565b5b60078381548110611caa57611ca9615483565b5b906000526020600020906007020160060160019054906101000a900460ff166003811115611cdb57611cda6144bc565b5b145b8015611db157506006600060078481548110611cfc57611cfb615483565b5b906000526020600020906007020160010154815260200190815260200160002060009054906101000a900473ffffffffffffffffffffffffffffffffffffffff1673ffffffffffffffffffffffffffffffffffffffff1660078381548110611d6757611d66615483565b5b906000526020600020906007020160020160009054906101000a900473ffffffffffffffffffffffffffffffffffffffff1673ffffffffffffffffffffffffffffffffffffffff16145b15612362576000600880549050905060086040518060c0016040528083815260200160078681548110611de757611de6615483565b5b906000526020600020906007020160010154815260200160078681548110611e1257611e11615483565b5b906000526020600020906007020160020160009054906101000a900473ffffffffffffffffffffffffffffffffffffffff1673ffffffffffffffffffffffffffffffffffffffff16815260200160078681548110611e7357611e72615483565b5b90600052602060002090600702016003018054611e8f90615452565b80601f0160208091040260200160405190810160405280929190818152602001828054611ebb90615452565b8015611f085780601f10611edd57610100808354040283529160200191611f08565b820191906000526020600020905b815481529060010190602001808311611eeb57829003601f168201915b5050505050815260200160078681548110611f2657611f25615483565b5b906000526020600020906007020160040160009054906101000a900473ffffffffffffffffffffffffffffffffffffffff1673ffffffffffffffffffffffffffffffffffffffff16815260200160078681548110611f8757611f86615483565b5b90600052602060002090600702016005018054611fa390615452565b80601f0160208091040260200160405190810160405280929190818152602001828054611fcf90615452565b801561201c5780601f10611ff15761010080835404028352916020019161201c565b820191906000526020600020905b815481529060010190602001808311611fff57829003601f168201915b50505050508152509080600181540180825580915050600190039060005260206000209060060201600090919091909150600082015181600001556020820151816001015560408201518160020160006101000a81548173ffffffffffffffffffffffffffffffffffffffff021916908373ffffffffffffffffffffffffffffffffffffffff16021790555060608201518160030190816120bd919061565e565b5060808201518160040160006101000a81548173ffffffffffffffffffffffffffffffffffffffff021916908373ffffffffffffffffffffffffffffffffffffffff16021790555060a082015181600501908161211a919061565e565b50505060036007848154811061213357612132615483565b5b906000526020600020906007020160060160016101000a81548160ff02191690836003811115612166576121656144bc565b5b02179055506007838154811061217f5761217e615483565b5b906000526020600020906007020160040160009054906101000a900473ffffffffffffffffffffffffffffffffffffffff166005600785815481106121c7576121c6615483565b5b906000526020600020906007020160010154815481106121ea576121e9615483565b5b90600052602060002090600a020160010160006101000a81548173ffffffffffffffffffffffffffffffffffffffff021916908373ffffffffffffffffffffffffffffffffffffffff1602179055506007838154811061224d5761224c615483565b5b906000526020600020906007020160040160009054906101000a900473ffffffffffffffffffffffffffffffffffffffff16600660006007868154811061229757612296615483565b5b906000526020600020906007020160010154815260200190815260200160002060006101000a81548173ffffffffffffffffffffffffffffffffffffffff021916908373ffffffffffffffffffffffffffffffffffffffff160217905550600060056007858154811061230d5761230c615483565b5b906000526020600020906007020160010154815481106123305761232f615483565b5b90600052602060002090600a020160090160006101000a81548160ff0219169083151502179055506001915050612367565b600090505b919050565b6000600460003373ffffffffffffffffffffffffffffffffffffffff1673ffffffffffffffffffffffffffffffffffffffff16815260200190815260200160002060010160009054906101000a900460ff1615612447576003600460003373ffffffffffffffffffffffffffffffffffffffff1673ffffffffffffffffffffffffffffffffffffffff168152602001908152602001600020600001548154811061241957612418615483565b5b906000526020600020906006020160050160009054906101000a900460ff16156124465760019050612448565b5b5b90565b60006007828154811061246157612460615483565b5b906000526020600020906007020160020160009054906101000a900473ffffffffffffffffffffffffffffffffffffffff1673ffffffffffffffffffffffffffffffffffffffff163373ffffffffffffffffffffffffffffffffffffffff160361253e57600782815481106124d9576124d8615483565b5b906000526020600020906007020160060160009054906101000a900460ff16156007838154811061250d5761250c615483565b5b906000526020600020906007020160060160006101000a81548160ff02191690831515021790555060019050612543565b600090505b919050565b60006005828154811061255e5761255d615483565b5b90600052602060002090600a020160090160019054906101000a900460ff161561258b5760019050612590565b600090505b919050565b60026020528060005260406000206000915090508060000154908060010160009054906101000a900460ff16905082565b600781815481106125d657600080fd5b90600052602060002090600702016000915090508060000154908060010154908060020160009054906101000a900473ffffffffffffffffffffffffffffffffffffffff169080600301805461262b90615452565b80601f016020809104026020016040519081016040528092919081815260200182805461265790615452565b80156126a45780601f10612679576101008083540402835291602001916126a4565b820191906000526020600020905b81548152906001019060200180831161268757829003601f168201915b5050505050908060040160009054906101000a900473ffffffffffffffffffffffffffffffffffffffff16908060050180546126df90615452565b80601f016020809104026020016040519081016040528092919081815260200182805461270b90615452565b80156127585780601f1061272d57610100808354040283529160200191612758565b820191906000526020600020905b81548152906001019060200180831161273b57829003601f168201915b5050505050908060060160009054906101000a900460ff16908060060160019054906101000a900460ff16905088565b612790614128565b61279933610ecd565b156129d8576003600460003373ffffffffffffffffffffffffffffffffffffffff1673ffffffffffffffffffffffffffffffffffffffff16815260200190815260200160002060000154815481106127f4576127f3615483565b5b90600052602060002090600602016040518060e00160405290816000820160009054906101000a900473ffffffffffffffffffffffffffffffffffffffff1673ffffffffffffffffffffffffffffffffffffffff1673ffffffffffffffffffffffffffffffffffffffff16815260200160018201805461287390615452565b80601f016020809104026020016040519081016040528092919081815260200182805461289f90615452565b80156128ec5780601f106128c1576101008083540402835291602001916128ec565b820191906000526020600020905b8154815290600101906020018083116128cf57829003601f168201915b50505050508152602001600282015481526020016003820154815260200160048201805461291990615452565b80601f016020809104026020016040519081016040528092919081815260200182805461294590615452565b80156129925780601f1061296757610100808354040283529160200191612992565b820191906000526020600020905b81548152906001019060200180831161297557829003601f168201915b505050505081526020016005820160009054906101000a900460ff161515151581526020016005820160019054906101000a900460ff16151515158152505090506129d9565b5b90565b3373ffffffffffffffffffffffffffffffffffffffff1660008054906101000a900473ffffffffffffffffffffffffffffffffffffffff1673ffffffffffffffffffffffffffffffffffffffff16148015612a3d5750612a3b83613f8e565b155b15612c215760006001805490509050604051806040016040528082815260200160011515815250600260008673ffffffffffffffffffffffffffffffffffffffff1673ffffffffffffffffffffffffffffffffffffffff1681526020019081526020016000206000820151816000015560208201518160010160006101000a81548160ff02191690831515021790555090505060016040518060c001604052808381526020018673ffffffffffffffffffffffffffffffffffffffff1681526020018581526020018481526020016040518060400160405280600d81526020017f7375622d7265676973747261720000000000000000000000000000000000000081525081526020016001151581525090806001815401808255809150506001900390600052602060002090600602016000909190919091506000820151816000015560208201518160010160006101000a81548173ffffffffffffffffffffffffffffffffffffffff021916908373ffffffffffffffffffffffffffffffffffffffff1602179055506040820151816002019081612bdc919061565e565b50606082015181600301556080820151816004019081612bfc919061565e565b5060a08201518160050160006101000a81548160ff0219169083151502179055505050505b505050565b60088181548110612c3657600080fd5b90600052602060002090600602016000915090508060000154908060010154908060020160009054906101000a900473ffffffffffffffffffffffffffffffffffffffff1690806003018054612c8b90615452565b80601f0160208091040260200160405190810160405280929190818152602001828054612cb790615452565b8015612d045780601f10612cd957610100808354040283529160200191612d04565b820191906000526020600020905b815481529060010190602001808311612ce757829003601f168201915b5050505050908060040160009054906101000a900473ffffffffffffffffffffffffffffffffffffffff1690806005018054612d3f90615452565b80601f0160208091040260200160405190810160405280929190818152602001828054612d6b90615452565b8015612db85780601f10612d8d57610100808354040283529160200191612db8565b820191906000526020600020905b815481529060010190602001808311612d9b57829003601f168201915b5050505050905086565b60046020528060005260406000206000915090508060000154908060010160009054906101000a900460ff16905082565b6060612dfe33613f8e565b1561326f57600060078054905067ffffffffffffffff811115612e2457612e23614745565b5b604051908082528060200260200182016040528015612e5d57816020015b612e4a61417f565b815260200190600190039081612e425790505b5090506000805b6007805490508110156131b35760026003811115612e8557612e846144bc565b5b60078281548110612e9957612e98615483565b5b906000526020600020906007020160060160019054906101000a900460ff166003811115612eca57612ec96144bc565b5b148015612f06575060078181548110612ee657612ee5615483565b5b906000526020600020906007020160060160009054906101000a900460ff165b156131a05760078181548110612f1f57612f1e615483565b5b90600052602060002090600702016040518061010001604052908160008201548152602001600182015481526020016002820160009054906101000a900473ffffffffffffffffffffffffffffffffffffffff1673ffffffffffffffffffffffffffffffffffffffff1673ffffffffffffffffffffffffffffffffffffffff168152602001600382018054612fb390615452565b80601f0160208091040260200160405190810160405280929190818152602001828054612fdf90615452565b801561302c5780601f106130015761010080835404028352916020019161302c565b820191906000526020600020905b81548152906001019060200180831161300f57829003601f168201915b505050505081526020016004820160009054906101000a900473ffffffffffffffffffffffffffffffffffffffff1673ffffffffffffffffffffffffffffffffffffffff1673ffffffffffffffffffffffffffffffffffffffff16815260200160058201805461309b90615452565b80601f01602080910402602001604051908101604052809291908181526020018280546130c790615452565b80156131145780601f106130e957610100808354040283529160200191613114565b820191906000526020600020905b8154815290600101906020018083116130f757829003601f168201915b505050505081526020016006820160009054906101000a900460ff161515151581526020016006820160019054906101000a900460ff16600381111561315d5761315c6144bc565b5b600381111561316f5761316e6144bc565b5b8152505083838151811061318657613185615483565b5b6020026020010181905250818061319c9061575f565b9250505b80806131ab9061575f565b915050612e64565b5060008167ffffffffffffffff8111156131d0576131cf614745565b5b60405190808252806020026020018201604052801561320957816020015b6131f661417f565b8152602001906001900390816131ee5790505b50905060005b828110156132635783818151811061322a57613229615483565b5b602002602001015182828151811061324557613244615483565b5b6020026020010181905250808061325b9061575f565b91505061320f565b50809350505050613270565b5b90565b61327b61236c565b15613489576000600580549050905060056040518061016001604052808381526020013373ffffffffffffffffffffffffffffffffffffffff1681526020018a81526020018981526020018881526020018781526020018681526020018581526020018481526020016000151581526020016000151581525090806001815401808255809150506001900390600052602060002090600a02016000909190919091506000820151816000015560208201518160010160006101000a81548173ffffffffffffffffffffffffffffffffffffffff021916908373ffffffffffffffffffffffffffffffffffffffff16021790555060408201518160020155606082015181600301556080820151816004019081613397919061565e565b5060a08201518160050190816133ad919061565e565b5060c08201518160060190816133c3919061565e565b5060e08201518160070190816133d9919061565e565b506101008201518160080190816133f0919061565e565b506101208201518160090160006101000a81548160ff0219169083151502179055506101408201518160090160016101000a81548160ff0219169083151502179055505050336006600083815260200190815260200160002060006101000a81548173ffffffffffffffffffffffffffffffffffffffff021916908373ffffffffffffffffffffffffffffffffffffffff160217905550505b50505050505050565b600181815481106134a257600080fd5b90600052602060002090600602016000915090508060000154908060010160009054906101000a900473ffffffffffffffffffffffffffffffffffffffff16908060020180546134f190615452565b80601f016020809104026020016040519081016040528092919081815260200182805461351d90615452565b801561356a5780601f1061353f5761010080835404028352916020019161356a565b820191906000526020600020905b81548152906001019060200180831161354d57829003601f168201915b50505050509080600301549080600401805461358590615452565b80601f01602080910402602001604051908101604052809291908181526020018280546135b190615452565b80156135fe5780601f106135d3576101008083540402835291602001916135fe565b820191906000526020600020905b8154815290600101906020018083116135e157829003601f168201915b5050505050908060050160009054906101000a900460ff16905086565b60606005805480602002602001604051908101604052809291908181526020016000905b828210156139f657838290600052602060002090600a020160405180610160016040529081600082015481526020016001820160009054906101000a900473ffffffffffffffffffffffffffffffffffffffff1673ffffffffffffffffffffffffffffffffffffffff1673ffffffffffffffffffffffffffffffffffffffff16815260200160028201548152602001600382015481526020016004820180546136e790615452565b80601f016020809104026020016040519081016040528092919081815260200182805461371390615452565b80156137605780601f1061373557610100808354040283529160200191613760565b820191906000526020600020905b81548152906001019060200180831161374357829003601f168201915b5050505050815260200160058201805461377990615452565b80601f01602080910402602001604051908101604052809291908181526020018280546137a590615452565b80156137f25780601f106137c7576101008083540402835291602001916137f2565b820191906000526020600020905b8154815290600101906020018083116137d557829003601f168201915b5050505050815260200160068201805461380b90615452565b80601f016020809104026020016040519081016040528092919081815260200182805461383790615452565b80156138845780601f1061385957610100808354040283529160200191613884565b820191906000526020600020905b81548152906001019060200180831161386757829003601f168201915b5050505050815260200160078201805461389d90615452565b80601f01602080910402602001604051908101604052809291908181526020018280546138c990615452565b80156139165780601f106138eb57610100808354040283529160200191613916565b820191906000526020600020905b8154815290600101906020018083116138f957829003601f168201915b5050505050815260200160088201805461392f90615452565b80601f016020809104026020016040519081016040528092919081815260200182805461395b90615452565b80156139a85780601f1061397d576101008083540402835291602001916139a8565b820191906000526020600020905b81548152906001019060200180831161398b57829003601f168201915b505050505081526020016009820160009054906101000a900460ff161515151581526020016009820160019054906101000a900460ff1615151515815250508152602001906001019061363f565b50505050905090565b60606008805480602002602001604051908101604052809291908181526020016000905b82821015613c3957838290600052602060002090600602016040518060c001604052908160008201548152602001600182015481526020016002820160009054906101000a900473ffffffffffffffffffffffffffffffffffffffff1673ffffffffffffffffffffffffffffffffffffffff1673ffffffffffffffffffffffffffffffffffffffff168152602001600382018054613ac090615452565b80601f0160208091040260200160405190810160405280929190818152602001828054613aec90615452565b8015613b395780601f10613b0e57610100808354040283529160200191613b39565b820191906000526020600020905b815481529060010190602001808311613b1c57829003601f168201915b505050505081526020016004820160009054906101000a900473ffffffffffffffffffffffffffffffffffffffff1673ffffffffffffffffffffffffffffffffffffffff1673ffffffffffffffffffffffffffffffffffffffff168152602001600582018054613ba890615452565b80601f0160208091040260200160405190810160405280929190818152602001828054613bd490615452565b8015613c215780601f10613bf657610100808354040283529160200191613c21565b820191906000526020600020905b815481529060010190602001808311613c0457829003601f168201915b50505050508152505081526020019060010190613a23565b50505050905090565b60058181548110613c5257600080fd5b90600052602060002090600a02016000915090508060000154908060010160009054906101000a900473ffffffffffffffffffffffffffffffffffffffff1690806002015490806003015490806004018054613cad90615452565b80601f0160208091040260200160405190810160405280929190818152602001828054613cd990615452565b8015613d265780601f10613cfb57610100808354040283529160200191613d26565b820191906000526020600020905b815481529060010190602001808311613d0957829003601f168201915b505050505090806005018054613d3b90615452565b80601f0160208091040260200160405190810160405280929190818152602001828054613d6790615452565b8015613db45780601f10613d8957610100808354040283529160200191613db4565b820191906000526020600020905b815481529060010190602001808311613d9757829003601f168201915b505050505090806006018054613dc990615452565b80601f0160208091040260200160405190810160405280929190818152602001828054613df590615452565b8015613e425780601f10613e1757610100808354040283529160200191613e42565b820191906000526020600020905b815481529060010190602001808311613e2557829003601f168201915b505050505090806007018054613e5790615452565b80601f0160208091040260200160405190810160405280929190818152602001828054613e8390615452565b8015613ed05780601f10613ea557610100808354040283529160200191613ed0565b820191906000526020600020905b815481529060010190602001808311613eb357829003601f168201915b505050505090806008018054613ee590615452565b80601f0160208091040260200160405190810160405280929190818152602001828054613f1190615452565b8015613f5e5780601f10613f3357610100808354040283529160200191613f5e565b820191906000526020600020905b815481529060010190602001808311613f4157829003601f168201915b5050505050908060090160009054906101000a900460ff16908060090160019054906101000a900460ff1690508b565b6000600260008373ffffffffffffffffffffffffffffffffffffffff1673ffffffffffffffffffffffffffffffffffffffff16815260200190815260200160002060010160009054906101000a900460ff1615613fee5760019050613ff3565b600090505b919050565b60066020528060005260406000206000915054906101000a900473ffffffffffffffffffffffffffffffffffffffff1681565b61403433613f8e565b156140aa576005818154811061404d5761404c615483565b5b90600052602060002090600a020160090160019054906101000a900460ff16156005828154811061408157614080615483565b5b90600052602060002090600a020160090160016101000a81548160ff0219169083151502179055505b50565b60003373ffffffffffffffffffffffffffffffffffffffff166006600084815260200190815260200160002060009054906101000a900473ffffffffffffffffffffffffffffffffffffffff1673ffffffffffffffffffffffffffffffffffffffff160361411e5760019050614123565b600090505b919050565b6040518060e00160405280600073ffffffffffffffffffffffffffffffffffffffff168152602001606081526020016000815260200160008152602001606081526020016000151581526020016000151581525090565b6040518061010001604052806000815260200160008152602001600073ffffffffffffffffffffffffffffffffffffffff16815260200160608152602001600073ffffffffffffffffffffffffffffffffffffffff16815260200160608152602001600015158152602001600060038111156141fe576141fd6144bc565b5b81525090565b600081519050919050565b600082825260208201905092915050565b6000819050602082019050919050565b600073ffffffffffffffffffffffffffffffffffffffff82169050919050565b600061425b82614230565b9050919050565b61426b81614250565b82525050565b600081519050919050565b600082825260208201905092915050565b60005b838110156142ab578082015181840152602081019050614290565b60008484015250505050565b6000601f19601f8301169050919050565b60006142d382614271565b6142dd818561427c565b93506142ed81856020860161428d565b6142f6816142b7565b840191505092915050565b6000819050919050565b61431481614301565b82525050565b60008115159050919050565b61432f8161431a565b82525050565b600060e08301600083015161434d6000860182614262565b506020830151848203602086015261436582826142c8565b915050604083015161437a604086018261430b565b50606083015161438d606086018261430b565b50608083015184820360808601526143a582826142c8565b91505060a08301516143ba60a0860182614326565b5060c08301516143cd60c0860182614326565b508091505092915050565b60006143e48383614335565b905092915050565b6000602082019050919050565b600061440482614204565b61440e818561420f565b93508360208202850161442085614220565b8060005b8581101561445c578484038952815161443d85826143d8565b9450614448836143ec565b925060208a01995050600181019050614424565b50829750879550505050505092915050565b6000602082019050818103600083015261448881846143f9565b905092915050565b600081519050919050565b600082825260208201905092915050565b6000819050602082019050919050565b7f4e487b7100000000000000000000000000000000000000000000000000000000600052602160045260246000fd5b600481106144fc576144fb6144bc565b5b50565b600081905061450d826144eb565b919050565b600061451d826144ff565b9050919050565b61452d81614512565b82525050565b60006101008301600083015161454c600086018261430b565b50602083015161455f602086018261430b565b5060408301516145726040860182614262565b506060830151848203606086015261458a82826142c8565b915050608083015161459f6080860182614262565b5060a083015184820360a08601526145b782826142c8565b91505060c08301516145cc60c0860182614326565b5060e08301516145df60e0860182614524565b508091505092915050565b60006145f68383614533565b905092915050565b6000602082019050919050565b600061461682614490565b614620818561449b565b935083602082028501614632856144ac565b8060005b8581101561466e578484038952815161464f85826145ea565b945061465a836145fe565b925060208a01995050600181019050614636565b50829750879550505050505092915050565b6000602082019050818103600083015261469a818461460b565b905092915050565b6000604051905090565b600080fd5b600080fd5b6146bf81614301565b81146146ca57600080fd5b50565b6000813590506146dc816146b6565b92915050565b6000602082840312156146f8576146f76146ac565b5b6000614706848285016146cd565b91505092915050565b61471881614250565b811461472357600080fd5b50565b6000813590506147358161470f565b92915050565b600080fd5b600080fd5b7f4e487b7100000000000000000000000000000000000000000000000000000000600052604160045260246000fd5b61477d826142b7565b810181811067ffffffffffffffff8211171561479c5761479b614745565b5b80604052505050565b60006147af6146a2565b90506147bb8282614774565b919050565b600067ffffffffffffffff8211156147db576147da614745565b5b6147e4826142b7565b9050602081019050919050565b82818337600083830152505050565b600061481361480e846147c0565b6147a5565b90508281526020810184848401111561482f5761482e614740565b5b61483a8482856147f1565b509392505050565b600082601f8301126148575761485661473b565b5b8135614867848260208601614800565b91505092915050565b600080600080600060a0868803121561488c5761488b6146ac565b5b600061489a88828901614726565b955050602086013567ffffffffffffffff8111156148bb576148ba6146b1565b5b6148c788828901614842565b94505060406148d8888289016146cd565b93505060606148e9888289016146cd565b925050608086013567ffffffffffffffff81111561490a576149096146b1565b5b61491688828901614842565b9150509295509295909350565b600060208284031215614939576149386146ac565b5b600061494784828501614726565b91505092915050565b6149598161431a565b82525050565b60006020820190506149746000830184614950565b92915050565b61498381614250565b82525050565b600082825260208201905092915050565b60006149a582614271565b6149af8185614989565b93506149bf81856020860161428d565b6149c8816142b7565b840191505092915050565b6149dc81614301565b82525050565b600060e0820190506149f7600083018a61497a565b8181036020830152614a09818961499a565b9050614a1860408301886149d3565b614a2560608301876149d3565b8181036080830152614a37818661499a565b9050614a4660a0830185614950565b614a5360c0830184614950565b98975050505050505050565b600081519050919050565b600082825260208201905092915050565b6000819050602082019050919050565b600060c083016000830151614aa3600086018261430b565b506020830151614ab66020860182614262565b5060408301518482036040860152614ace82826142c8565b9150506060830151614ae3606086018261430b565b5060808301518482036080860152614afb82826142c8565b91505060a0830151614b1060a0860182614326565b508091505092915050565b6000614b278383614a8b565b905092915050565b6000602082019050919050565b6000614b4782614a5f565b614b518185614a6a565b935083602082028501614b6385614a7b565b8060005b85811015614b9f5784840389528151614b808582614b1b565b9450614b8b83614b2f565b925060208a01995050600181019050614b67565b50829750879550505050505092915050565b60006020820190508181036000830152614bcb8184614b3c565b905092915050565b6000604082019050614be860008301856149d3565b614bf56020830184614950565b9392505050565b614c0581614512565b82525050565b600061010082019050614c21600083018b6149d3565b614c2e602083018a6149d3565b614c3b604083018961497a565b8181036060830152614c4d818861499a565b9050614c5c608083018761497a565b81810360a0830152614c6e818661499a565b9050614c7d60c0830185614950565b614c8a60e0830184614bfc565b9998505050505050505050565b600060e083016000830151614caf6000860182614262565b5060208301518482036020860152614cc782826142c8565b9150506040830151614cdc604086018261430b565b506060830151614cef606086018261430b565b5060808301518482036080860152614d0782826142c8565b91505060a0830151614d1c60a0860182614326565b5060c0830151614d2f60c0860182614326565b508091505092915050565b60006020820190508181036000830152614d548184614c97565b905092915050565b600080600060608486031215614d7557614d746146ac565b5b6000614d8386828701614726565b935050602084013567ffffffffffffffff811115614da457614da36146b1565b5b614db086828701614842565b9250506040614dc1868287016146cd565b9150509250925092565b600060c082019050614de060008301896149d3565b614ded60208301886149d3565b614dfa604083018761497a565b8181036060830152614e0c818661499a565b9050614e1b608083018561497a565b81810360a0830152614e2d818461499a565b9050979650505050505050565b600080600080600080600060e0888a031215614e5957614e586146ac565b5b6000614e678a828b016146cd565b9750506020614e788a828b016146cd565b965050604088013567ffffffffffffffff811115614e9957614e986146b1565b5b614ea58a828b01614842565b955050606088013567ffffffffffffffff811115614ec657614ec56146b1565b5b614ed28a828b01614842565b945050608088013567ffffffffffffffff811115614ef357614ef26146b1565b5b614eff8a828b01614842565b93505060a088013567ffffffffffffffff811115614f2057614f1f6146b1565b5b614f2c8a828b01614842565b92505060c088013567ffffffffffffffff811115614f4d57614f4c6146b1565b5b614f598a828b01614842565b91505092959891949750929550565b600060c082019050614f7d60008301896149d3565b614f8a602083018861497a565b8181036040830152614f9c818761499a565b9050614fab60608301866149d3565b8181036080830152614fbd818561499a565b9050614fcc60a0830184614950565b979650505050505050565b600081519050919050565b600082825260208201905092915050565b6000819050602082019050919050565b60006101608301600083015161501c600086018261430b565b50602083015161502f6020860182614262565b506040830151615042604086018261430b565b506060830151615055606086018261430b565b506080830151848203608086015261506d82826142c8565b91505060a083015184820360a086015261508782826142c8565b91505060c083015184820360c08601526150a182826142c8565b91505060e083015184820360e08601526150bb82826142c8565b9150506101008301518482036101008601526150d782826142c8565b9150506101208301516150ee610120860182614326565b50610140830151615103610140860182614326565b508091505092915050565b600061511a8383615003565b905092915050565b6000602082019050919050565b600061513a82614fd7565b6151448185614fe2565b93508360208202850161515685614ff3565b8060005b858110156151925784840389528151615173858261510e565b945061517e83615122565b925060208a0199505060018101905061515a565b50829750879550505050505092915050565b600060208201905081810360008301526151be818461512f565b905092915050565b600081519050919050565b600082825260208201905092915050565b6000819050602082019050919050565b600060c08301600083015161520a600086018261430b565b50602083015161521d602086018261430b565b5060408301516152306040860182614262565b506060830151848203606086015261524882826142c8565b915050608083015161525d6080860182614262565b5060a083015184820360a086015261527582826142c8565b9150508091505092915050565b600061528e83836151f2565b905092915050565b6000602082019050919050565b60006152ae826151c6565b6152b881856151d1565b9350836020820285016152ca856151e2565b8060005b8581101561530657848403895281516152e78582615282565b94506152f283615296565b925060208a019950506001810190506152ce565b50829750879550505050505092915050565b6000602082019050818103600083015261533281846152a3565b905092915050565b600061016082019050615350600083018e6149d3565b61535d602083018d61497a565b61536a604083018c6149d3565b615377606083018b6149d3565b8181036080830152615389818a61499a565b905081810360a083015261539d818961499a565b905081810360c08301526153b1818861499a565b905081810360e08301526153c5818761499a565b90508181036101008301526153da818661499a565b90506153ea610120830185614950565b6153f8610140830184614950565b9c9b505050505050505050505050565b600060208201905061541d600083018461497a565b92915050565b7f4e487b7100000000000000000000000000000000000000000000000000000000600052602260045260246000fd5b6000600282049050600182168061546a57607f821691505b60208210810361547d5761547c615423565b5b50919050565b7f4e487b7100000000000000000000000000000000000000000000000000000000600052603260045260246000fd5b60008190508160005260206000209050919050565b60006020601f8301049050919050565b600082821b905092915050565b6000600883026155147fffffffffffffffffffffffffffffffffffffffffffffffffffffffffffffffff826154d7565b61551e86836154d7565b95508019841693508086168417925050509392505050565b6000819050919050565b600061555b61555661555184614301565b615536565b614301565b9050919050565b6000819050919050565b61557583615540565b61558961558182615562565b8484546154e4565b825550505050565b600090565b61559e615591565b6155a981848461556c565b505050565b5b818110156155cd576155c2600082615596565b6001810190506155af565b5050565b601f821115615612576155e3816154b2565b6155ec846154c7565b810160208510156155fb578190505b61560f615607856154c7565b8301826155ae565b50505b505050565b600082821c905092915050565b600061563560001984600802615617565b1980831691505092915050565b600061564e8383615624565b9150826002028217905092915050565b61566782614271565b67ffffffffffffffff8111156156805761567f614745565b5b61568a8254615452565b6156958282856155d1565b600060209050601f8311600181146156c857600084156156b6578287015190505b6156c08582615642565b865550615728565b601f1984166156d6866154b2565b60005b828110156156fe578489015182556001820191506020850194506020810190506156d9565b8683101561571b5784890151615717601f891682615624565b8355505b6001600288020188555050505b505050505050565b7f4e487b7100000000000000000000000000000000000000000000000000000000600052601160045260246000fd5b600061576a82614301565b91507fffffffffffffffffffffffffffffffffffffffffffffffffffffffffffffffff820361579c5761579b615730565b5b60018201905091905056fea2646970667358221220a3f004ea32f9bf83e89dab8cf23bec34f5b1eaf800679ec61c4c56a32fd5d04964736f6c6343000810003368747470733a2f2f626166796265696433796d6b6a36366977726f6c683278697a37336d7967357172676c786a616f6c68706b76336471646a756d6c696c70737268792e697066732e647765622e6c696e6b2f5444532e70646668747470733a2f2f6261667962656962743365783478346374687436706e78776d34626c6d6c6f65676971363763776d7773747a6c7769766c676c6d6b7a67776d68612e697066732e647765622e6c696e6b2f312e6a7067",
  "immutableReferences": {},
  "source": "// list error hai \r\n// ine 62\r\n\r\npragma solidity ^0.8.12;\r\n\r\ncontract Retail {\r\n    address contractOwner = 0x9FA5d84C3ABbf41bA75BeAF136916CE0475D5b2a;\r\n    \r\n    // --------------- Land Inspector ------------------\r\n    // land inspector structure\r\n    struct landInspector {\r\n        uint lid;\r\n        address addr;\r\n        string name;\r\n        uint age;\r\n        string designation;\r\n        bool isLandInspector;\r\n    }\r\n\r\n    // ============\r\n    // declaring array of land inspectors address\r\n    landInspector[] public landInspectorsList;\r\n\r\n\r\n    struct inspector_data {\r\n        uint lid;\r\n        bool isLandInspector;\r\n    }\r\n    // decalred dictionary for users\r\n    mapping(address => inspector_data) public landInspectors;\r\n\r\n    // add land inspector\r\n    function addLandInspector(address addr, string memory name, uint age) public {\r\n        if(contractOwner == msg.sender && !isLandInspector(addr)){\r\n            // =======\r\n            uint lid = landInspectorsList.length;\r\n            landInspectors[addr] = inspector_data(lid, true);\r\n            landInspectorsList.push(landInspector(lid, addr, name, age, 'sub-registrar', true));\r\n        }\r\n    }\r\n\r\n    // verifies inspectors existance\r\n    function isLandInspector(address addr) public view returns(bool){\r\n        if(landInspectors[addr].isLandInspector){\r\n            return true;\r\n        }\r\n        else {\r\n            return false;\r\n        }\r\n    }\r\n\r\n    // get land inspectors list\r\n    function getLandInspectors() public view returns(landInspector[] memory){\r\n        if(msg.sender == contractOwner){\r\n            return landInspectorsList;\r\n        }\r\n    }\r\n\r\n    // ------------------- User --------------------\r\n    // user structer\r\n    struct user {\r\n        address addr;\r\n        string name;\r\n        uint age;\r\n        uint256 phone;\r\n        string identity;\r\n        bool isVerified;\r\n        bool isUser;\r\n    }\r\n\r\n    user[] public usersList;\r\n\r\n    struct users_data{\r\n        uint uid;\r\n        bool isUser;\r\n    }\r\n    mapping(address => users_data) public users;\r\n\r\n    // add user\r\n    function addUser(address addr, string memory name, uint age, uint256 phone, string memory identity) public {\r\n        if(isLandInspector(msg.sender) || msg.sender == contractOwner){\r\n            uint uid = usersList.length;\r\n            usersList.push(user(addr, name, age, phone, identity, false, true));\r\n            users[addr] = users_data(uid, true);\r\n        }\r\n    }\r\n\r\n    function userExists(address addr) public view returns(bool){\r\n        if(users[addr].isUser){\r\n            return true;\r\n        }\r\n        else{ return false; }\r\n    }\r\n\r\n    // checks if user is verified or not\r\n    function isUserVerified() public view returns(bool){\r\n        if(users[msg.sender].isUser){\r\n            if(usersList[users[msg.sender].uid].isVerified){\r\n                return true;\r\n            }\r\n        }\r\n    }\r\n\r\n    // verify user\r\n    function verifyUser(address addr) external{\r\n        if(isLandInspector(msg.sender)){\r\n            usersList[users[addr].uid].isVerified = !usersList[users[addr].uid].isVerified;\r\n        }\r\n    }\r\n\r\n    // get list of users address\r\n    function getUsers() public view returns(user[] memory ){\r\n        return usersList;\r\n    }\r\n\r\n    function getUser() external view returns(user memory){\r\n        if(userExists(msg.sender)){\r\n            return(usersList[users[msg.sender].uid]);\r\n        }\r\n    }\r\n\r\n    // ---------------------------- Land ----------------------------\r\n    // declared land structure\r\n    struct land {\r\n        uint landId;\r\n        address ownerAddr;\r\n        uint area;\r\n        uint price;\r\n        string place;\r\n        string location;\r\n        string landImage;\r\n        string doc;\r\n        string supportingDoc;\r\n        bool isForSell;\r\n        bool isLandVerified;\r\n    }\r\n\r\n    // declared land list\r\n    land[] public landList;\r\n    // declared lands directory containing their owners address\r\n    mapping(uint => address) public lands;\r\n\r\n    // function to add land details\r\n    function addLand(uint area, uint256 price, string memory place, string memory location, string memory landImage, string memory doc, string memory supportingDoc) public{\r\n        if(isUserVerified()){\r\n            uint landId = landList.length;\r\n            landList.push(land(landId, msg.sender, area, price, place, location, landImage, doc, supportingDoc, false, false));\r\n            lands[landId] = msg.sender;\r\n        }\r\n    }\r\n\r\n    // get all lands\r\n    function getAllLands() public view returns(land[] memory){\r\n        return landList;\r\n    }\r\n\r\n    // verification status of land\r\n    function isLandVerified(uint landId) public view returns(bool){\r\n        if(landList[landId].isLandVerified){\r\n            return true;\r\n        }\r\n        else{ return false; }\r\n    }\r\n\r\n    // find land owner\r\n    function isLandOwner(uint landId) public view returns(bool){\r\n        if(lands[landId]==msg.sender){\r\n            return true;\r\n        }else{\r\n            return false;\r\n        }\r\n    }\r\n\r\n    // verify Land\r\n    function verifyLand(uint landId) external{\r\n        if(isLandInspector(msg.sender)){\r\n            landList[landId].isLandVerified = !landList[landId].isLandVerified;\r\n        }\r\n    }\r\n\r\n    // make land for sale\r\n    function makeLandForSell(uint landId) external {\r\n        if(landList[landId].isLandVerified && lands[landId] == msg.sender && isUserVerified()){\r\n            landList[landId].isForSell = !landList[landId].isForSell;\r\n        }\r\n    }\r\n\r\n    // Land Requests\r\n    // declaring request dtructure\r\n    enum reqStatus {Pending, Rejected, Accepted, Closed}\r\n    struct landRequests{\r\n        uint reqId;\r\n        uint landId;\r\n        address owner;\r\n        string ownerName;\r\n        address buyer;\r\n        string buyerName;\r\n        bool paymentDone;\r\n        reqStatus requestStatus;\r\n    }\r\n    // declaring list of requests\r\n    landRequests[] public reqList;\r\n\r\n    // add request\r\n    function addRequest(uint landId) public returns(bool) {\r\n        if(isUserVerified()){\r\n             uint rId = reqList.length;\r\n             reqList.push(landRequests(rId, landId, landList[landId].ownerAddr, usersList[users[landList[landId].ownerAddr].uid].name, msg.sender, usersList[users[msg.sender].uid].name, false, reqStatus.Pending));\r\n            return true;\r\n        }else return false;\r\n    }\r\n\r\n    // get Land Requests\r\n    function showRequests() public view returns(landRequests[] memory){\r\n        // if(isUserVerified()){\r\n        //     landRequests[] memory temporary = new landRequests[](reqList.length);\r\n        //     uint counter=0;\r\n        //     for(uint i=0; i<reqList.length; i++){\r\n        //         if(reqList[i].owner == msg.sender || reqList[i].buyer == msg.sender){\r\n        //             temporary[i] = reqList[i];\r\n        //             counter++;\r\n        //         }\r\n        //     }\r\n\r\n        //     landRequests[] memory userReqs = new landRequests[](counter);\r\n        //     for(uint i=0; i<counter; i++){\r\n        //         userReqs[i] = temporary[i];\r\n        //     }\r\n\r\n        //     return userReqs;\r\n        // }\r\n        return reqList;\r\n    }\r\n\r\n    // reject request\r\n    function rejectRequest(uint rId) public {\r\n        if(msg.sender == reqList[rId].owner && isUserVerified()){\r\n            reqList[rId].requestStatus= reqStatus.Rejected;\r\n        }\r\n    }\r\n    // accept request\r\n    function acceptRequest(uint rId) public {\r\n        if(msg.sender == reqList[rId].owner && isUserVerified()){\r\n            reqList[rId].requestStatus= reqStatus.Accepted;\r\n        }\r\n        // rejecting all other requests send on this land\r\n            for(uint i=0; i<reqList.length;i++){\r\n                if(reqList[i].landId == reqList[rId].landId && reqList[i].buyer != reqList[rId].buyer && reqList[i].requestStatus != reqStatus.Closed){\r\n                    reqList[i].requestStatus = reqStatus.Rejected;\r\n                    // reqDataList[reqList[i].buyer].hasRequest = false;\r\n                }\r\n            }\r\n    }\r\n\r\n    // verify Payment\r\n    function verifyPayment(uint reqId) public returns(bool){\r\n        if(msg.sender == reqList[reqId].owner){\r\n            reqList[reqId].paymentDone = !reqList[reqId].paymentDone;\r\n            return true;\r\n        }else return false;\r\n    }\r\n\r\n    // show approved request to inspector\r\n    function showApprovedRequests() public view returns(landRequests[] memory){\r\n        if(isLandInspector(msg.sender)){\r\n            landRequests[] memory temporary = new landRequests[](reqList.length);\r\n            uint counter =0;\r\n            for(uint i=0; i<reqList.length;i++){\r\n                if(reqList[i].requestStatus == reqStatus.Accepted && reqList[i].paymentDone){\r\n                    temporary[counter] = reqList[i];\r\n                    counter++;\r\n                }\r\n            }\r\n\r\n            landRequests[] memory data = new landRequests[](counter);\r\n            for(uint i=0; i<counter; i++){\r\n                data[i] = temporary[i];\r\n            }\r\n\r\n            return data;\r\n        }\r\n    }\r\n\r\n    // declaring structer for transactions\r\n    struct transaction {\r\n        uint tId;\r\n        uint landId;\r\n        address from;\r\n        string fromName;\r\n        address to;\r\n        string toName;\r\n    }\r\n    // declaring transaction list to store all transactions\r\n    transaction[] public transactions;\r\n\r\n    // to transfer property\r\n    function makeTransfer(uint rId) public returns(bool){\r\n        if(isLandInspector(msg.sender) && reqList[rId].paymentDone && reqList[rId].requestStatus == reqStatus.Accepted && reqList[rId].owner==lands[reqList[rId].landId]){\r\n            uint tId = transactions.length;\r\n\r\n            // adding transaction\r\n            transactions.push(transaction(tId, reqList[rId].landId, reqList[rId].owner, reqList[rId].ownerName, reqList[rId].buyer, reqList[rId].buyerName));\r\n            reqList[rId].requestStatus = reqStatus.Closed;\r\n\r\n            // transfering ownership and not enabling land for sell\r\n            landList[reqList[rId].landId].ownerAddr = reqList[rId].buyer;\r\n            lands[reqList[rId].landId] = reqList[rId].buyer;\r\n            landList[reqList[rId].landId].isForSell = false;\r\n\r\n            return true;\r\n        }else return false;\r\n    }\r\n\r\n    // view transaction\r\n    function showTransactions() public view returns(transaction[] memory){\r\n        return transactions;\r\n    }\r\n\r\n    constructor(){\r\n        // adding land inspector\r\n        addLandInspector(0x65751938d5896A453CCa5815E3680c73Def0ea92, 'inspector1', 40);\r\n        addUser(0xc81f0673E01be52D92278A907dc8d38CBC901C3a, 'seller', 20, 8652825534, 'https://bafybeid3ymkj66iwrolh2xiz73myg5qrglxjaolhpkv3dqdjumlilpsrhy.ipfs.dweb.link/TDS.pdf');\r\n        addUser(0xC8E6Aa8354a0CE0cA175db92b821e6DBB98C7ba8, 'buyer', 20, 8652825534, 'https://bafybeibt3ex4x4ctht6pnxwm4blmloegiq67cwmwstzlwivlglmkzgwmha.ipfs.dweb.link/1.jpg');\r\n        addUser(0x7dc7751B7439780d6607D04236CfAD6DF697d57F, 'user3', 25, 8652825534, 'https://bafybeibt3ex4x4ctht6pnxwm4blmloegiq67cwmwstzlwivlglmkzgwmha.ipfs.dweb.link/1.jpg');\r\n        // addLand(1500, 500000);\r\n    }\r\n\r\n}",
  "sourcePath": "C:\\Users\\Shubham\\Desktop\\vs codes\\blockchain\\final year\\backend\\contracts\\retail.sol",
  "compiler": {
    "name": "solc",
    "version": "0.8.16+commit.07a7930e.Emscripten.clang"
  },
  "schemaVersion": "3.4.9",
  "updatedAt": "2022-10-30T13:46:10.805Z",
  "networkType": "ethereum",
  "devdoc": {
    "kind": "dev",
    "methods": {},
    "version": 1
  },
  "userdoc": {
    "kind": "user",
    "methods": {},
    "version": 1
  }
}